:020000040000FA
:1000000002EF00F00F0EC16E956A836AF00E946ED7
:10001000080ED56E00EE40F070EC00F011EC00F030
:10002000FBD7E824F92623D087D097D0A7D0B7D024
:10003000C7D0D7D0E7D0F7D007D117D127D137D144
:1000400024D026D035D027D0E824F92610D074D07B
:1000500084D094D0A4D0B4D0C4D0D4D0E4D0F4D040
:1000600004D114D124D111D013D022D014D0170E22
:10007000046E000E026240EC00F05B0E836E120014
:10008000170EEF6204C0EFFF1200010E026E1200A5
:10009000000E026E1200000EEA6E3F0EE96EEC6674
:1000A00005D0000EEA6E400EE96E1200EF6AF7D737
:1000B000000EEA6E400EE96EEFCF05F0EECFE8FFDE
:1000C00024EC00F005C0E8FFEF6202D0F5D7120083
:1000D000EF6601D0120037EC00F068EC01F0ECD7CD
:1000E000036A8268829093EC00F0E8521AE1040EF1
:1000F00003268268829293EC00F0E85212E1040E2B
:1001000003268268829493EC00F0E8520AE1040E20
:1001100003268268829693EC00F0E85201E001E148
:1001200012000324120082A8010C82AA020C82ACE5
:10013000030C82AE040C000C010E046E000E026271
:1001400004C0ECFFF80ED76E880ED66EF294831EB4
:10015000D58EF2A4FED7D59E1200020E046E000EBC
:10016000026204C0ECFFF90ED76E590ED66EF294FF
:10017000831ED58EF2A4FED7D59E1200030E046E08
:10018000000E026204C0ECFFFA0ED76E130ED66E9C
:10019000F294831ED58EF2A4FED7D59E1200040ED3
:1001A000046E000E026204C0ECFFFA0ED76E680EF9
:1001B000D66EF294831ED58EF2A4FED7D59E120081
:1001C000050E046E000E026204C0ECFFFB0ED76E3B
:1001D000040ED66EF294831ED58EF2A4FED7D59E61
:1001E0001200060E046E000E026204C0ECFFFB0E4D
:1001F000D76E8F0ED66EF294831ED58EF2A4FED7E4
:10020000D59E1200070E046E000E026204C0ECFFC1
:10021000FC0ED76E0B0ED66EF294831ED58EF2A412
:10022000FED7D59E1200080E046E000E026204C0B6
:10023000ECFFFC0ED76E440ED66EF294831ED58E64
:10024000F2A4FED7D59E1200090E046E000E0262C3
:1002500004C0ECFFFC0ED76EAC0ED66EF294831E7B
:10026000D58EF2A4FED7D59E12000A0E046E000EA3
:10027000026204C0ECFFFD0ED76E090ED66EF2943A
:10028000831ED58EF2A4FED7D59E12000B0E046EEF
:10029000000E026204C0ECFFFD0ED76E340ED66E67
:1002A000F294831ED58EF2A4FED7D59E12000C0EBA
:1002B000046E000E026204C0ECFFFD0ED76E820ECB
:1002C000D66EF294831ED58EF2A4FED7D59E120070
:1002D000CC0E006E016E012EFED7002EFCD7120050
:020000040030CA
:03000100021F1EBD
:020005008181F7
:060008000FC00FE00F40E5
:00000001FF
